:020000040800F2
:1000000030070020CD010008D1010008D30100080D
:10001000D5010008D7010008D90100080000000040
:10002000000000000000000000000000DB010008EC
:10003000DD01000800000000DF010008E101000808
:10004000E3010008E3010008E3010008E301000800
:10005000E3010008E3010008E3010008E3010008F0
:10006000E3010008E3010008E3010008E3010008E0
:10007000E3010008E3010008E3010008E3010008D0
:10008000E3010008E3010008E3010008E3010008C0
:10009000E3010008E3010008E3010008E3010008B0
:1000A000E3010008E3010008E3010008E3010008A0
:1000B000E3010008E3010008E3010008E301000890
:1000C000E3010008E3010008E3010008E301000880
:1000D000E301000875020008E3010008E3010008DD
:1000E000E3010008E3010008E3010008E301000860
:1000F000E3010008E3010008E3010008E301000850
:10010000E3010008E3010008E3010008E30100083F
:10011000E3010008E3010008E3010008E30100082F
:10012000E3010008E3010008E3010008E30100081F
:1001300000F002F800F03AF80AA090E8000C8244BF
:100140008344AAF10107DA4501D100F02FF8AFF29C
:10015000090EBAE80F0013F0010F18BFFB1A43F0A5
:10016000010318479C010000BC010000103A24BFA5
:1001700078C878C1FAD8520724BF30C830C144BF0C
:1001800004680C607047000000230024002500264E
:10019000103A28BF78C1FBD8520728BF30C148BFEA
:1001A0000B6070471FB51FBD10B510BD00F02FF8D4
:1001B0001146FFF7F7FF00F0A1F800F04DF803B487
:1001C000FFF7F2FF03BC00F097F800000848004773
:1001D000FEE7FEE7FEE7FEE7FEE7FEE7FEE7FEE7F7
:1001E000FEE7FEE703480449044A054B7047000058
:1001F00031010008300100203007002030030020CA
:10020000300300207047704770477047704775464D
:1002100000F02CF8AE4605006946534620F0070072
:10022000854618B020B5FFF7DDFFBDE820404FF050
:1002300000064FF000074FF000084FF0000B21F0D0
:100240000701AC46ACE8C009ACE8C009ACE8C0099D
:10025000ACE8C0098D46704710B50446AFF3008086
:100260002046BDE81040FFF7AABF000000487047D5
:10027000D00000201D49098801F0200111B31B495D
:10028000091D0988C8B21A49098801F40041C9B991
:100290001749098801F4804161B10A2803D000217F
:1002A000134A118020E01249098841F40041104AA4
:1002B000118019E00D2806D10D49098841F48041CB
:1002C0000B4A118010E00A490988C1F30D01094A5F
:1002D000505407490988491C054A1180114609886C
:1002E000C72901DD0021118070470000003801405E
:1002F000040000200800002000BF70470020704765
:100300002003000800000020080000006C01000825
:1003100028030008080000202807000088010008C2
:080320000000000000000000D5
:0400000508000131BD
:00000001FF
