:0B092B0009083F065B06081020408012
:10088C00EE705BEF14B4080050549008A475F0039C
:10089C00A4C58325F0C583730208BC0208C00208F6
:1008AC00C80208CC0208D40208D80208E00208E406
:1008BC00C2A28002D2A2C2A3C2A48022C2A280027F
:1008CC00D2A2D2A3C2A48016C2A28002D2A2C2A378
:1008DC00D2A4800AC2A28002D2A2D2A3D2A474084B
:0608EC002DF8E6F5802264
:0D090F00007F047ECD7DBBDDFEDEFCDFFA47
:01091C0022B8
:05091D000DFE12088C24
:080922007F027EEFDEFEDFFC28
:01092A0022AA
:1008F200E4FDFC7F0112091EE4F5807F0212091D4E
:0D090200E4F5807F0312091DE4F58080E319
:03000000020800F3
:0C080000787FE4F6D8FD758110020847EF
:10080C000208F2E493A3F8E493A34003F68001F208
:10081C0008DFF48029E493A3F85407240CC8C333ED
:10082C00C4540F4420C8834004F456800146F6DFBC
:10083C00E4800B010204081020408090092BE47E18
:10084C00019360BCA3FF543F30E509541FFEE493B1
:10085C00A360010ECF54C025E060A840B8E493A378
:10086C00FAE493A3F8E493A3C8C582C8CAC583CAA3
:10087C00F0A3C8C582C8CAC583CADFE9DEE780BE5B
:0109360000C0
:00000001FF
