:100EA00020202D20202D20200020203A20203A2014
:020EB000200020
:100BD900120E8C120EF67BFF7A0E79A07D017F0131
:100BE900120DFF7BFF7A0E79A97D017F02120DFF9D
:100BF90012096E120AC0E518FB7A00750C027D0114
:100C09007F01120E40E519FB7A00750C027D047F05
:100C190001120E40E51AFB7A00750C027D077F016F
:100C2900120E40E51BFB7A00750C027D017F021252
:100C39000E40E51CFB7A00750C027D047F02120E42
:100C490040E51DFB7A00750C027D077F02120E40FC
:020C590080A178
:060EB200C2A58F80D2A74B
:080EB8007F027EEFDEFEDFFC8D
:010EC000220F
:0A0ED000C2A6120EB2C2A7020EB8AD
:100E2200CFCDCFCECCCE120A6B7C007D0A120A6BDC
:040E3200ED2430FF7C
:0A0E3600D2A6120EB2C2A7020EB837
:100E7600AE07BE0104ED148006BE0209ED243F4410
:060E860080FF120ED022D5
:100E8C007F38120ED07F0C120ED07F06120ED07F40
:040E9C0001020ED071
:0A0EDA00AC03120E76AF04020E36D0
:060DFF008B088A09890A35
:100E0500120E76E4FDAB08AA09A90A8D8275830046
:0C0E1500120A2CFF6006120E360D80E958
:010E210022AE
:0C0DCC007F0AEA24FFFDE434FFFC7E00F7
:080DD8008E0D8F0E8C0F8D10A3
:100DE0007F017E00E4FBEBC39510E50F6480F8748F
:0E0DF0008098500AAC0DAD0E120A590B80E827
:010DFE0022D2
:040E40008A0A8B0B84
:100E4400120E76AA0CEAD39400400D120DCCAC0A13
:080E5400AD0B120E221A80ED15
:010E5C002273
:100D2100120E76C3EA64809480400B7F2B120E363C
:100D31008A168B17800E7F2D120E36C3E49BF51792
:100D4100E49AF516AA15EAD39400400D120DCCAC25
:090D510016AD17120E221A80EDF6
:010D5A002276
:040D5B008A218B223C
:100D5F00120E76AA23EAD3940040297F10120DCEEB
:100D6F00AC21AD22CFCDCFCECCCE120A6BEF540F2C
:100D7F00FEC3940AEE5004243080022437FF120E73
:040D8F00361A80D1BF
:010D9300223D
:040D94008A268B27F9
:100D9800120E76AA28EAD394004028EA24FFFDE43C
:100DA80034FFFC7F027E00120DD8AC26AD27CFCDD4
:100DB800CFCECCCE120A6BEF54012430FF120E3680
:030DC8001A80D2BC
:010DCB002205
:100800007590FFC2932097137F14120EC13097FD8D
:100810007F14120EC1752900752A012096137F14CA
:10082000120EC13096FD7F14120EC1752900752A73
:10083000052095137F14120EC13095FD7F14120E02
:10084000C1752900752A092094137F14120EC13036
:1008500094FD7F14120EC1752900752A0DC29220D5
:1008600097137F14120EC13097FD7F14120EC175BD
:100870002900752A022096137F14120EC13096FDAE
:100880007F14120EC1752900752A062095137F1456
:10089000120EC13095FD7F14120EC1752900752A04
:1008A0000A2094137F14120EC13094FD7F14120E8F
:1008B000C1752900752A0EC2912097137F14120E5C
:1008C000C13097FD7F14120EC1752900752A0320CF
:1008D00096137F14120EC13096FD7F14120EC1754F
:1008E0002900752A072095137F14120EC13095FD3B
:1008F0007F14120EC1752900752A0B2094137F14E2
:10090000120EC13094FD7F14120EC1752900752A94
:100910000FC2902097137F14120EC13097FD7F14E1
:10092000120EC1752900752A042096137F14120E29
:10093000C13096FD7F14120EC1752900752A08205A
:1009400095137F14120EC13095FD7F14120EC175E0
:100950002900752A0C2094137F14120EC13094FDC7
:0D0960007F14120EC1752900752A10AF2AF0
:01096D002267
:0E0EC1001FEF600A7E027DEFDDFEDEFC80F298
:010ECF002200
:100E5D00759850438780D28E53890F438920758BA7
:090E6D00F4758DF4D2AFD2AC2271
:080EEE008F993099FDC2992291
:090EE4000718130B100C3B370634
:050EF600C2B5C2B622E6
:030C5B0025F0FD84
:040C5E008F08A9054D
:100C6200D2B5E4FBFAAF0374017E00A80708800541
:100C7200C333CE33CED8F9FFEF550824FF92B4D256
:100C8200B6C2B60BBB00010AEB64084A70D7E4FA9D
:100C9200FBAF0374017E00A807088005C333CE337F
:100CA200CED8F9FFE9FDEF5D24FF92B4D2B6C2B609
:0D0CB2000BBB00010AEB64084A70D6C2B506
:010CBF002212
:020CC000A90782
:100CC200E4F508430101D2B5FBFAAF0374017E00DB
:100CD200A807088005C333CE33CED8F9FFE9FDEF6C
:100CE2005D24FF92B4C2B6D2B60BBB00010AEB641C
:100CF200084A70D6E4FAFBD2B6C2B630B40FAF03DC
:100D02007401A807088002C333D8FC42080BBB0059
:0E0D1200010AEB64084A70DFC2B5C2B4AF0834
:010D200022B0
:10096E00E4FD7F8E120C5EE4FD7F8E120C5EE518A8
:10097E0075F00A84C454F0FFE51875F00A84EF7F11
:10098E008C120C5BE51975F00A84C454F0FFE5195E
:10099E0075F00A84EF7F88120C5BE51A75F00A84F5
:1009AE00C454F0FFE51A75F00A84EF25F0FD7F863A
:1009BE00120C5EE51B75F00A84C454F0FFE51B753E
:1009CE00F00A84EF25F0FD7F84120C5EE51C75F0B5
:1009DE000A84C454F0FFE51C75F00A84EF25F0FD7F
:1009EE007F82120C5EE51D75F00A84C454F0FFE59B
:1009FE001D75F00A84EF25F0FD7F80120C5EE51E5A
:100A0E0075F00A84C454F0FFE51E75F00A84EF25D4
:0E0A1E00F0FD7F8A120C5E7D807F8E020C5EE2
:100AC0007F8C120CC0EFC4540F75F00AA4FEEF54D3
:100AD0000F2EF5187F88120CC0EFC4540F75F00A62
:100AE000A4FEEF540F2EF5197F86120CC0EFC454EC
:100AF0000F75F00AA4FEEF540F2EF51A7F84120C26
:100B0000C0EFC4540F75F00AA4FEEF540F2EF51B6E
:100B10007F82120CC0EFC4540F75F00AA4FEEF548C
:100B20000F2EF51C7F80120CC0EFC4540F75F00A15
:100B3000A4FEEF540F2EF51D7F8A120CC0EFC45493
:0C0B40000F75F00AA4FEEF540F2EF51EF6
:010B4C002286
:03000000020B4DA3
:0C0B4D00787FE4F6D8FD75812A020B9435
:100A2C00BB010CE58229F582E5833AF583E022507F
:100A3C0006E92582F8E622BBFE06E92582F8E222C9
:0D0A4C00E58229F582E5833AF583E49322E3
:100A5900EF8DF0A4A8F0CF8CF0A428CE8DF0A42EB1
:020A6900FE226B
:100A6B00BC000BBE0029EF8DF084FFADF022E4CC6F
:100A7B00F875F008EF2FFFEE33FEEC33FCEE9DEC38
:100A8B00984005FCEE9DFE0FD5F0E9E4CEFD22ED7E
:100A9B00F8F5F0EE8420D21CFEADF075F008EF2FC8
:100AAB00FFED33FD4007985006D5F0F222C398FDB9
:050ABB000FD5F0EA2256
:100B5900020BD9E493A3F8E493A34003F68001F2CE
:100B690008DFF48029E493A3F85407240CC8C3339D
:100B7900C4540F4420C8834004F456800146F6DF6C
:100B8900E4800B0102040810204080900EE4E47E0A
:100B9900019360BCA3FF543F30E509541FFEE49361
:100BA900A360010ECF54C025E060A840B8E493A328
:100BB900FAE493A3F8E493A3C8C582C8CAC583CA53
:100BC900F0A3C8C582C8CAC583CADFE9DEE780BE0B
:010EED000004
:00000001FF
