:020000040800F2
:10000000A0060020CD0100083905000821040008E1
:10001000890400088702000853110008000000004E
:1000200000000000000000000000000019070008A8
:100030008B02000800000000C10500082D08000820
:10004000E7010008E7010008E7010008E7010008F0
:10005000E7010008E7010008E7010008E7010008E0
:10006000E7010008E7010008E7010008E7010008D0
:10007000E7010008E7010008E7010008E7010008C0
:10008000E7010008E7010008E7010008E7010008B0
:10009000E7010008E7010008E70100088D020008F9
:1000A000E7010008E7010008E7010008E701000890
:1000B000790B00083D0C0008E7010008E701000883
:1000C000E7010008E7010008E7010008E701000870
:1000D000E7010008F10E0008E7010008E701000849
:1000E000E7010008E7010008E7010008E701000850
:1000F000E7010008E7010008E7010008E701000840
:10010000E7010008E7010008E7010008E70100082F
:10011000E7010008E7010008E7010008E70100081F
:10012000E7010008E7010008E7010008E70100080F
:1001300000F002F800F03AF80AA090E8000C8244BF
:100140008344AAF10107DA4501D100F02FF8AFF29C
:10015000090EBAE80F0013F0010F18BFFB1A43F0A5
:10016000010318471C1100003C110000103A24BF85
:1001700078C878C1FAD8520724BF30C830C144BF0C
:1001800004680C607047000000230024002500264E
:10019000103A28BF78C1FBD8520728BF30C148BFEA
:1001A0000B6070471FB51FBD10B510BD00F031F8D2
:1001B0001146FFF7F7FF01F017F800F04FF803B40E
:1001C000FFF7F2FF03BC00F057F800000948804732
:1001D00009480047FEE7FEE7FEE7FEE7FEE7FEE729
:1001E000FEE7FEE7FEE7FEE704480549054A064B41
:1001F000704700003108000831010008A00000200D
:10020000A0060020A0020020A00200207047704736
:100210007047754600F02CF8AE4605006946534617
:1002200020F00700854618B020B5FFF7DDFFBDE8D8
:1002300020404FF000064FF000074FF000084FF04D
:10024000000B21F00701AC46ACE8C009ACE8C009DE
:10025000ACE8C009ACE8C0098D46704710B504464B
:10026000AFF300802046BDE81040FFF7A8BF0000B4
:10027000004870474000002001491820ABBEFEE74F
:1002800026000200704700BFFEE7704710B50A2045
:1002900000F084FF1048007848B14FF480710F4897
:1002A00000F0BCF804210E4800F0B6F808E04FF466
:1002B00080710A4800F0B0F80421094800F0AEF857
:1002C0000548007808B9012000E0002002490870C4
:1002D000202000F007F810BD2C000020000801408D
:1002E00000140140014908607047000014040140F7
:1002F0002DE9F041024600250026002000230024BD
:10030000002791F803C00CF00F0591F803C00CF022
:10031000100CBCF1000F03D091F802C04CEA0505A7
:1003200091F800C0BCF1000F31D0146800202BE020
:100330004FF0010C0CFA00F3B1F800C00CEA030610
:100340009E4220D183004FF00F0C0CFA03F7BC4300
:1003500005FA03FC4CEA040491F803C0BCF1280F31
:1003600006D14FF0010C0CFA00FCC2F814C00AE0F0
:1003700091F803C0BCF1480F05D14FF0010C0CFA05
:1003800000FCC2F810C0401C0828D1D31460B1F89A
:1003900000C0BCF1FF0F34DD546800202EE000F1F6
:1003A000080C4FF0010808FA0CF3B1F800C00CEA91
:1003B00003069E4221D183004FF00F0C0CFA03F785
:1003C000BC4305FA03FC4CEA040491F803C0BCF1F9
:1003D000280F05D100F1080C08FA0CF8C2F81480B7
:1003E00091F803C0BCF1480F07D100F1080C4FF0A1
:1003F000010808FA0CF8C2F81080401C0828CED377
:100400005460BDE8F0810246002093680B400BB1B8
:10041000012000E000207047416170470161704792
:1004200000BFFEE708B50121042000F0EBF8012130
:10043000202000F0E7F810208DF803000001ADF84F
:10044000000003208DF8020069460D48FFF750FFB9
:100450004FF480710A48FFF7E1FF10208DF8030088
:100460000420ADF8000003208DF80200694605481D
:10047000FFF73EFF04210348FFF7D0FF08BD00004F
:10048000000801400014014000BFFEE700B587B03E
:100490000121042000F0B6F80121880300F0B2F831
:1004A000234800F043FD18208DF81B004FF4007026
:1004B000ADF8180001208DF81A0006A91D48FFF7B5
:1004C00017FF04208DF81B000002ADF8180006A9E4
:1004D0001848FFF70DFF4FF4E13002900020ADF80F
:1004E00014000C20ADF812000020ADF81000ADF89B
:1004F0000E00ADF80C0002A90D4800F0B5FD252056
:100500008DF8040001208DF807008DF805008DF8A6
:10051000060001A800F012F8012240F2255104481B
:1005200000F07CFD0121024800F0F4FC07B000BDA2
:1005300000380140000801407047000070B50021FC
:1005400000230F22C47804B3154C246804F4E0643B
:10055000C4F5E064210AC1F10403CA40447804FAF6
:1005600003F184781440214309010E4C0678A1550B
:10057000047804F01F050124AC4005786D11AD002E
:1005800005F1E025C5F8004109E0047804F01F05F5
:100590000124AC40044D0678761145F8264070BD24
:1005A0000CED00E000E400E080E100E002490143DE
:1005B000024A1160704700000000FA050CED00E0EF
:1005C0007047000029B1064AD2690243044BDA6140
:1005D00004E0034AD2698243014BDA6170470000AC
:1005E0000010024029B1064A12690243044B1A6105
:1005F00004E0034A12698243014B1A61704700000C
:100600000010024029B1064A92690243044B9A61E4
:1006100004E0034A92698243014B9A6170470000EB
:100620000010024029B1064AD2680243044BDA6046
:1006300004E0034AD2688243014BDA60704700004D
:100640000010024030B500210022002400232D4D6F
:100650006D6805F00C0121B1042905D0082923D1CA
:1006600005E0294D056022E0274D05601FE0254D7E
:100670006D6805F47012234D6D6805F48034022511
:1006800005EB92421CB9214D554305600BE01D4D11
:100690006D6805F400351DB11C4D5543056002E041
:1006A000194D5543056002E0174D056000BF00BFBE
:1006B000144D6D6805F0F0010909154D6B5C056876
:1006C000DD4045600F4D6D6805F4E061090A104D8D
:1006D0006B5C4568DD4085600A4D6D6805F46051CE
:1006E000C90A0B4D6B5C4568DD40C560054D6D6802
:1006F00005F44041890B074D6B5CC568B5FBF3F50C
:10070000056130BD0010024000127A0000093D0072
:100710001400002024000020704710B500F002F8FB
:1007200010BD00000CB50020019000903348006817
:1007300040F480303149086000BF3048006800F460
:10074000003000900198401C0190009818B9019861
:10075000B0F5A06FF1D12948006800F4003010B165
:100760000120009001E0002000900098012843D172
:100770002348006840F010002149086008460068DE
:1007800020F0030008600846006840F0020008609E
:100790001A48406819494860084640684860084659
:1007A000406840F4806048600846406820F47C104F
:1007B00048600846406840F4E81048600846006811
:1007C00040F08070086000BF0C48006800F00070C6
:1007D0000028F9D00948406820F003000749486024
:1007E0000846406840F00200486000BF0348406887
:1007F00000F00C000828F9D10CBD000000100240E8
:1008000000200240042808D14FF0E021096941F09E
:1008100004014FF0E022116107E04FF0E021096987
:1008200021F004014FF0E022116170477047000091
:1008300010B51348006840F00100114908600846EF
:100840004068104908400E494860084600680E4953
:1008500008400B4908600846006820F480200860C2
:100860000846406820F4FE0048604FF41F0088608E
:10087000FFF753FF4FF000600449086010BD00000F
:10088000001002400000FFF8FFFFF6FE08ED00E058
:10089000F0B50C46154600220021068C4FF6FE7777
:1008A0003E400684028B018C4FF60C7632407E1C53
:1008B00006EA03162E433243104EB0420ED0104EBD
:1008C000B0420BD0B0F1804F08D00E4EB04205D0F0
:1008D0000D4EB04202D00D4EB04206D14FF6FD761D
:1008E000314044F00106314305E04FF6F5763140E2
:1008F00044F00106314302830184F0BD002C014025
:10090000003401400004004000080040000C00409A
:10091000F0B50C461546002200210026078C4FF644
:10092000EF7C07EA0C070784028B018C4FF6FF77F8
:1009300007EA041640F6FF473A404FF6FF7707EA0A
:1009400003373A434FF6FF7707EA05273A43114F3B
:10095000B8420ED0104FB8420BD0B0F1804F08D043
:100960000E4FB84205D00E4FB84202D00D4FB842DC
:1009700006D14FF6DF77394046F01007394305E0DE
:100980004FF65F77394044F0100739430283018402
:10099000F0BD0000002C0140003401400004004084
:1009A00000080040000C0040F0B50C46154600223F
:1009B00000210026078C4FF6FF6C07EA0C0707841E
:1009C000828B018C4FF6FF7707EA04264FF60C77EF
:1009D0003A404FF6FF7707EA03172F433A43114F88
:1009E000B8420ED0104FB8420BD0B0F1804F08D0B3
:1009F0000E4FB84205D00E4FB84202D00D4FB8424C
:100A000006D14FF6FF57394046F48077394305E069
:100A10004FF2FF57394044F4807739438283018491
:100A2000F0BD0000002C01400034014000040040F3
:100A300000080040000C0040F0B50C4615460022AE
:100A400000210026078C4EF6FF7C07EA0C0707847E
:100A5000828B018C4FF6FF7707EA043640F6FF479A
:100A60003A404FF6FF7707EA05273A434FF6FF77FC
:100A700007EA03373A43114FB8420ED0104FB8423D
:100A80000BD0B0F1804F08D00E4FB84205D00E4FBA
:100A9000B84202D00D4FB84206D14DF6FF7739402B
:100AA00046F48057394305E047F6FF57394044F490
:100AB0008057394382830184F0BD0000002C01403F
:100AC000003401400004004000080040000C0040D9
:100AD00030B585B005460C4601210846FFF772FD8A
:100AE00001210420FFF78EFD0120ADF81000282021
:100AF0008DF8130004A91E48FFF7FAFB01211C48DA
:100B0000FFF78AFCADF80850ADF804400020ADF8BE
:100B10000A00ADF8060001A94FF0804000F096F9F8
:100B20000020144908804880012088800020C88067
:100B300008814FF0804000F0F1F81C208DF8000093
:100B400002208DF8010000208DF8020001208DF8B0
:100B500003006846FFF7F2FC01220321900700F032
:100B600033F90121880700F0B8F805B030BD000066
:100B7000000801403400002010B52E48007800F035
:100B8000800000284FD10121880700F0B5F8D0B1CE
:100B90002848007800F04000A8B12648007800F00E
:100BA0003F003F280AD12348007840F080002149C7
:100BB00008704FF6FF702049088004E01D48007857
:100BC000401C1C4908700221480700F095F850B3FA
:100BD0001848007800F0400088B11648007840F0CE
:100BE0008000144908704FF0804000F082F81249EC
:100BF000088000214FF0804000F0EFF813E0002063
:100C00000C4908700C49088000214FF0804000F02A
:100C1000EFF80848007840F04000064908700221CB
:100C2000480700F0DAF803214FF0804000F052F856
:100C300010BD00002E0000203000002010B5012162
:100C40000B4800F059F888B10121094800F042F83A
:100C500004210848FFF7D7FB20B104210548FFF71E
:100C6000DBFB03E004210348FFF7D8FB10BD0000C5
:100C700000040040001401407FB505460C460121E8
:100C80000220FFF79FFC0020ADF80A00ADF8060037
:100C9000ADF80850ADF8044001A90D4800F0D6F8B1
:100CA000012211460A4800F08FF81D208DF800003F
:100CB00001208DF8030002208DF801008DF802005C
:100CC0006846FFF73BFC0121014800F006F87FBDB4
:100CD00000040040CA430282704721B1028842F0FA
:100CE0000102028004E002884FF6FE731A4002807F
:100CF00070470146888E704730B5024600200023B9
:100D00000024158A05EA0103958905EA010413B157
:100D10000CB1012000E0002030BD000070B5054698
:100D20000C46244885420ED0234885420BD0B5F1AD
:100D3000804F08D02148854205D02148854202D005
:100D40002048854200D100E000BF208850B92389A7
:100D5000A28861882846FFF79BFDE188284600F0BD
:100D600049F825E0208804280AD12389A2886188CF
:100D70002846FFF7CDFDE188284600F044F817E04B
:100D8000208808280AD12389A28861882846FFF78D
:100D90000BFEE188284600F043F809E02389A28889
:100DA00061882846FFF748FEE188284600F041F8B0
:100DB00070BD0000002C01400034014000040040E0
:100DC00000080040000C00401AB183890B43838166
:100DD00002E083898B43838170470A460021018C9E
:100DE0004FF6FD73194011430184704781867047A7
:100DF00081847047028B4FF6F3731A400283028B93
:100E00000A4302837047028B4FF2FF331A4002837A
:100E1000028B4FF6FF7303EA01231A4302837047E4
:100E2000828B4FF6F3731A408283828B0A4382834C
:100E30007047828B4FF2FF331A408283828B4FF6CA
:100E4000FF7303EA01231A4382837047002202885A
:100E50001D4B98420ED01D4B98420BD0B0F1804FE5
:100E600008D01B4B984205D01A4B984202D01A4B1F
:100E7000984204D14FF68F731A404B881A43174B90
:100E8000984207D0164B984204D04FF6FF431A40C1
:100E9000CB881A4302808B8883850B8803850A4B95
:100EA00098420BD0094B984208D00E4B984205D07F
:100EB0000D4B984202D00D4B984201D10B7A03861C
:100EC0000123838270470000002C01400034014060
:100ED0000004004000080040000C004000100040EA
:100EE000001400400040014000440140004801401F
:100EF00010B540F22551064800F066F838B10448B4
:100F000000F01EF9C4B22146014800F01EF910BDE0
:100F10000038014021B1828942F40052828104E00C
:100F200082894DF6FF731A408281704710B50446DE
:100F30002048844209D101218803FFF773FB002177
:100F40004FF48040FFF76EFB32E01B48844209D12A
:100F500001214804FFF746FB00214FF40030FFF762
:100F600041FB25E01548844209D101218804FFF79F
:100F700039FB00214FF48020FFF734FB18E01048C4
:100F8000844209D10121C804FFF72CFB00214FF452
:100F90000020FFF727FB0BE00A48844208D101211B
:100FA0000805FFF71FFB00214FF48010FFF71AFB25
:100FB00010BD0000003801400044004000480040DF
:100FC000004C00400050004070B502460024002351
:100FD0000025002040F66A16B14200D100BFC1F3DF
:100FE000421501F01F03012606FA03F3012D02D179
:100FF0009689334006E0022D02D1168A334001E083
:10100000968A33400C12012606FA04F416883440FE
:1010100013B10CB1012000E0002070BDF0B5034613
:10102000002400260025002040F66A17B94200D1AE
:1010300000BF1846C1F3421401F01F06012707FA4A
:1010400006F5012C01D10C3004E0022C01D1103046
:1010500000E014301AB107682F43076002E0076808
:10106000AF430760F0BD00002DE9F04786B00546AC
:101070000E460024A24600BFA1460027B08900B159
:1010800000BF2F462C8A4CF6FF700440F0880443C2
:101090002C82AC894EF6F3100440B08831890843A5
:1010A000718908430443AC81AC8A4FF6FF40044089
:1010B000B0890443AC8201A8FFF7C4FA1F488742F5
:1010C00002D1DDF810A001E0DDF80CA0A88900F441
:1010D000004040B10AEBCA0000EB0A103168490039
:1010E000B0FBF1F807E00AEBCA0000EB0A10316828
:1010F0008900B0FBF1F86420B8FBF0F0040120098E
:10110000642101FB1089A88900F4004040B132201D
:1011100000EBC900B0FBF1F000F00700044308E069
:10112000322000EB09106421B0FBF1F000F00F0059
:1011300004432C8106B0BDE8F08700000038014070
:1011400001468888C0F308007047C1F30802828016
:10115000704700BFFEE7000010B56FF00400FFF716
:1011600051FB0A4800680A49B0FBF1F009490870D0
:101170000846007800EB4001C1EBC0104FF6FF714C
:1011800001EAC0000449088010BD000000000020F2
:1011900000127A00280000202A0000200146114A8F
:1011A00012884A434FF0E0235A6100229A611A469E
:1011B000126942F001021A6100BF4FF0E02210698B
:1011C00000F001021AB100F48032002AF5D04FF08D
:1011D000E022126922F001024FF0E0231A6100229E
:1011E0009A6170472A00002000BF00BF0024FFF76B
:1011F000B3FFFFF717F9FFF749F94FF4A060FFF7C6
:10120000D5F9002140F28330FFF736FD47214FF634
:10121000FF70FFF75DFC29E00A20FFF7BFFF1448CD
:10122000FFF767FD401C85B229461148FFF7DEFD38
:101230000F48FFF75EFDB0F5967F03D100210C4803
:10124000FFF7D4FD0B48007800F0800070B109482A
:10125000007800F03F042404074800880444A1B249
:101260000648FFF772FF002002490870D4E700002B
:10127000002C01402E0000203000002000380140EA
:10128000A012000800000020340000006C010008DB
:10129000D4120008340000206C0600008801000809
:1012A00000A24A0400000000000000000102030444
:1012B00006070809000000000102030401020304FC
:1012C00006070809020406080000000001000000EB
:0412D000000000001A
:0400000508000131BD
:00000001FF
