:100E8B001213C71213F97FEE1213EA1212248F2CCE
:100E9B008E2B8D2A8C291213F91212248F2C8E2B48
:100EAB008D2A8C29E4FFFEFDFCAB2CAA2BA92AA8CA
:100EBB00291209A6501E7B2D7D017F01121410AF44
:100ECB002CAE2BAD2AAC29120A1F8F2C8E2B8D2A00
:100EDB008C2980097B2B7D017F01121410AF2CAE66
:100EEB002BAD2AAC29120A6EAB07AA06750C037D33
:100EFB00027F011212DE7B2E7D057F011214107F03
:100F0B00007E407D1C7C46AB2CAA2BA92AA829125B
:100F1B000800120A6EE47B107A27F9F8120BBF75E2
:0C0F2B000C047D067F011212DE020EA1F4
:0613DB00C2A58F80D2A71D
:0813E1007F027EEFDEFEDFFC5F
:0113E90022E1
:0A140600C2A61213DBC2A70213E115
:1012C000CFCDCFCECCCE120B2E7C007D0A120B2EB2
:0412D000ED2430FFDA
:0A12D400D2A61213DBC2A70213E139
:1013B100AE07BE0104ED148006BE0209ED243F44D0
:0613C10080FF1214062259
:1013C7007F381214067F0C1214067F061214067F4C
:0413D70001021406F5
:0A141000AC031213B1AF040212D4B2
:06127B008B2D8A2E892F45
:101281001213B1E4FDAB2DAA2EA92F8D8275830017
:0C129100120AEFFF60061212D40D80E973
:01129D00222E
:0C11C1007F0AEA24FFFDE434FFFC7E00FE
:0811CD008E0D8F0E8C0F8D10AA
:1011D5007F017E00E4FBEBC39510E50F6480F87496
:0E11E5008098500AAC0DAD0E120B1C0B80E86A
:0111F30022D9
:0412DE008A0A8B0BE2
:1012E2001213B1AA0CEAD39400400D1211C1AC0A38
:0812F200AD0B1212C01A80EDD1
:0112FA0022D1
:101116001213B1C3EA64809480400B7F2B1212D461
:101126008A168B17800E7F2D1212D4C3E49BF517F7
:10113600E49AF516AA15EAD39400400D1211C1AC33
:0911460016AD171212C01A80ED5B
:01114F00227D
:041150008A218B2243
:101154001213B1AA23EAD3940040297F101211C3B9
:10116400AC21AD22CFCDCFCECCCE120B2EEF540F6F
:10117400FEC3940AEE5004243080022437FF121276
:04118400D41A80D128
:011188002244
:041189008A268B2700
:10118D001213B1AA28EAD394004028EA24FFFDE403
:10119D0034FFFC7F027E001211CDAC26AD27CFCDE2
:1011AD00CFCECCCE120B2EEF54012430FF1212D421
:0311BD001A80D2C3
:0111C000220C
:100C5F007590FFC2932097137F141213EA3097FDFC
:100C6F007F141213EA7530007531012096137F142B
:100C7F001213EA3096FD7F141213EA7530007531A6
:100C8F00052095137F141213EA3095FD7F1412136C
:100C9F00EA7530007531092094137F141213EA306E
:100CAF0094FD7F141213EA75300075310DC2922036
:100CBF0097137F141213EA3097FD7F141213EA75FE
:100CCF0030007531022096137F141213EA3096FD0F
:100CDF007F141213EA7530007531062095137F14B7
:100CEF001213EA3095FD7F141213EA753000753137
:100CFF000A2094137F141213EA3094FD7F141213F9
:100D0F00EA75300075310EC2912097137F141213BC
:100D1F00EA3097FD7F141213EA7530007531032006
:100D2F0096137F141213EA3096FD7F141213EA758F
:100D3F0030007531072095137F141213EA3095FD9B
:100D4F007F141213EA75300075310B2094137F1442
:100D5F001213EA3094FD7F141213EA7530007531C7
:100D6F000FC2902097137F141213EA3097FD7F1450
:100D7F001213EA7530007531042096137F14121385
:100D8F00EA3096FD7F141213EA7530007531082092
:100D9F0095137F141213EA3095FD7F141213EA7521
:100DAF00300075310C2094137F141213EA3094FD28
:0D0DBF007F141213EA753000753110AF314A
:010DCC002204
:0E13EA001FEF600A7E027DEFDDFEDEFC80F26A
:0113F80022D2
:10134E00759850438780D28E53890F438920758BB1
:09135E00F4758DF4D2AFD2AC227B
:081441008F993099FDC2992238
:09141A000718130B100C3B3706F8
:05145000C2B5C2B62286
:0310500025F0FD8B
:041053008F36A90526
:10105700D2B5E4FBFAAF0374017E00A80708800548
:10106700C333CE33CED8F9FFEF553624FF92B4D22F
:10107700B6C2B60BBB00010AEB64084A70D7E4FAA4
:10108700FBAF0374017E00A807088005C333CE3386
:10109700CED8F9FFE9FDEF5D24FF92B4D2B6C2B610
:0D10A7000BBB00010AEB64084A70D6C2B50D
:0110B4002219
:0210B500A90789
:1010B700E4F537430101D2B5FBFAAF0374017E00B3
:1010C700A807088005C333CE33CED8F9FFE9FDEF73
:1010D7005D24FF92B4C2B6D2B60BBB00010AEB6423
:1010E700084A70D6E4FAFBD2B6C2B630B40FAF03E3
:1010F7007401A807088002C333D8FC42370BBB0032
:0E110700010AEB64084A70DFC2B5C2B4AF370C
:0111150022B7
:100DCD00E4FD7F8E121053E4FD7F8E121053E51853
:100DDD0075F00A84C454F0FFE51875F00A84EF7FAE
:100DED008C121050E51975F00A84C454F0FFE51902
:100DFD0075F00A84EF7F88121050E51A75F00A8499
:100E0D00C454F0FFE51A75F00A84EF25F0FD7F86D6
:100E1D00121053E51B75F00A84C454F0FFE51B75E1
:100E2D00F00A84EF25F0FD7F84121053E51C75F058
:100E3D000A84C454F0FFE51C75F00A84EF25F0FD1B
:100E4D007F82121053E51D75F00A84C454F0FFE53E
:100E5D001D75F00A84EF25F0FD7F80121053E51EFD
:100E6D0075F00A84C454F0FFE51E75F00A84EF2571
:0E0E7D00F0FD7F8A1210537D807F8E0210538D
:100F37007F8C1210B5EFC4540F75F00AA4FEEF545E
:100F47000F2EF5187F881210B5EFC4540F75F00AED
:100F5700A4FEEF540F2EF5197F861210B5EFC45477
:100F67000F75F00AA4FEEF540F2EF51A7F841210A6
:100F7700B5EFC4540F75F00AA4FEEF540F2EF51BFE
:100F87007F821210B5EFC4540F75F00AA4FEEF5418
:100F97000F2EF51C7F801210B5EFC4540F75F00AA1
:100FA700A4FEEF540F2EF51D7F8A1210B5EFC4541F
:0C0FB7000F75F00AA4FEEF540F2EF51E7B
:010FC300220B
:09143800D2A0D2A1C2A0C2A122DF
:07144900C2A0D2A1D2A02233
:02125000AD07E8
:10125200C2A1E4FB74807E00A803088006CEA2E748
:1012620013CE13D8F8FFEDF582EF558224FF92A03A
:08127200D2A1C2A10BBB08DCF4
:01127A002251
:10131800E4FFFED2A130A00D7480A806088002C3A5
:0B13280013D8FC4207C2A10EBE08E86B
:011333002297
:0A142400EF24FF92A0D2A1C2A12282
:09142E00D2A1A2A0E433FFC2A187
:011437002292
:10129E008F328D331214387FA012125012142EAFCB
:1012AE003212125012142EAF3312125012142E028A
:0212BE001449D1
:0211F4008F3436
:1011F6001214387FA012125012142EAF341212504D
:1012060012142E1214387FA112125012142E121319
:0D121600188F357F01121424121449AF35D2
:0112230022A8
:10133400D2B7C2B77FF7DFFED2B77F20DFFEA2B7F6
:09134400E433FE7F55DFFEAF0625
:01134D00227D
:10136700EF7009C2B77E3CDEFED2B722C2B77E0459
:08137700DEFED2B77E18DEFE97
:01137F00224B
:10139900C2B77F02DFFED2B77F02DFFEA2B7E43316
:0713A900FE7F18DFFEAF0616
:0113B000221A
:02138000AD07B7
:10138200E4FC7401A804088002C333D8FC5DFF1298
:0613920013670CBC08EC1F
:011398002232
:1012FB00E4FDFC121399EF600D7401A80408800241
:0C130B00C333D8FC42050CBC08E9AF0558
:0113170022B3
:0D13F9001213347FCC1213807F4402138046
:101224001213347FCC1213807FBE1213801212FB70
:101234008F081212FBEFFEE508FFFDAC06EC120A64
:0B12440035E4FBFA79807841120909BB
:01124F00227C
:10080000EC4D6011E8497017ED33EC3304600DE4F2
:10081000FCFFFEFD22E933E8330470F8020ADA1225
:100820000AA558046009E4CC248150062850090226
:100830000AE4284003020AE1C0E0EB4A7044B980B0
:1008400006D0E0FB020AD0EF4E701CBD8008EBFF23
:10085000EAFEE9FD80EBE98DF0A4FEE5F00208E98F
:10086000E9CDF9EAFEEBFFEF89F0A4FCE5F0CE89D3
:10087000F0A42EFFE435F0CD89F0A42DFEE435F090
:100880008067EF4E7005BD80D780C3EF8BF0A4ACBE
:10089000F0EE8BF0A42CFCE435F0F8EF8AF0A42CF9
:1008A000E5F038FCE433CB8DF0A42CFCE5F03BF80C
:1008B000EE8AF0A42CFCE5F038F8E433CF89F0A4FC
:1008C0002CFCE5F038CF3400CE89F0A42FFFE5F002
:1008D0003EFEE433C98DF0A42EFEE5F039CD8AF05A
:1008E000A42FFFE5F03EFEE43DFD33D0E0FB5007D2
:1008F0000BBB000F020AE4EC2CFCEF33FFEE33FEDF
:06090000ED33FD020ABC0C
:10090600020AE4EC5D046005E859047003020ADAA1
:10091600120AA5580460F6EC4860F2EC7004FDFE7D
:10092600FF22C860DB2481C85009C39860025006C4
:10093600020AE19850CAF582E9294B4A7005AB8252
:10094600020AD075F0007C1A7880C3EF9BEE9AED10
:1009560099400DC3EF9BFFEE9AFEED99FDE842F03C
:10096600DC23ACF0D0E0FFD0E0FED0E0FDAB82208F
:10097600E7101BEB60BAEC2CFCEF33FFEE33FEED19
:1009860033FD020ABCE803F830E705C0F075F00055
:10099600EF2FFFEE33FEED33FD40B830E7C280AAFD
:1009A60074F8CC6480CCC86480C8F58204604FC3F8
:1009B600EB9FF5F0EA9E42F0E99D42F0E89C45F097
:1009C600603C501DE5825FFFE582D313CB5BCBF421
:1009D6002B5582FB50280ABA002409B9002008804A
:1009E6001DE5825BFBE582D313CF5FCFF4C3132FE4
:1009F6005582FF50090EBE00050DBD00010CC3EB6C
:100A06009FF5F0EA9E42F0E99D42F0E89C45F060D1
:090A160007CC4820E701B3EC22F3
:100A1F00ED33EC33600A047003BD8004ECB2E7FCE5
:010A2F0022A4
:100A300075F020800E75F010800575F0087D007E41
:100A4000007F003392D530D503120C51EC334010A7
:100A5000EF33FFEE33FEED33FDEC33FCD5F0ED224A
:0E0A6000E5F0247EA2D513CC92E7CDCEFF2286
:100A6E00EDD2E7CD33EC3392D524814006E4FFFE80
:100A7E00FDFC22FCE4CFCECDCC24E0501174FF80DF
:100A8E00EDC3CC13CCCD13CDCE13CECF13CF04707C
:070A9E00F030D5DE020C511F
:100AA500E9D2E7C933E833F892D5EDD2E7CD33EC97
:070AB50033FC5002B2D52210
:100ABC00EC30E7100FBF000C0EBE00080DBD00049B
:100ACC000BEB6014A2D5EB13FCED92E7FD2274FF47
:100ADC00FCFDFEFF22E480F8A2D574FF13FC7D80A0
:030AEC00E480EFB4
:03000000020FC428
:0C0FC400787FE4F6D8FD75813702100B31
:100AEF00BB010CE58229F582E5833AF583E02250BC
:100AFF0006E92582F8E622BBFE06E92582F8E22206
:0D0B0F00E58229F582E5833AF583E493221F
:100B1C00EF8DF0A4A8F0CF8CF0A428CE8DF0A42EED
:020B2C00FE22A7
:100B2E00BC000BBE0029EF8DF084FFADF022E4CCAB
:100B3E00F875F008EF2FFFEE33FEEC33FCEE9DEC74
:100B4E00984005FCEE9DFE0FD5F0E9E4CEFD22EDBA
:100B5E00F8F5F0EE8420D21CFEADF075F008EF2F04
:100B6E00FFED33FD4007985006D5F0F222C398FDF5
:050B7E000FD5F0EA2292
:100B830075F008758200EF2FFFEE33FECD33CDCC29
:100B930033CCC58233C5829BED9AEC99E5829840AC
:100BA3000CF582EE9BFEED9AFDEC99FC0FD5F0D689
:100BB300E4CEFBE4CDFAE4CCF9A88222B800C1B9B3
:100BC3000059BA002DEC8BF084CFCECDFCE5F0CBF1
:100BD300F97818EF2FFFEE33FEED33FDEC33FCEB2A
:100BE30033FB10D703994004EB99FB0FD8E5E4F9E5
:100BF300FA227818EF2FFFEE33FEED33FDEC33FCD2
:100C0300C933C910D7059BE99A4007EC9BFCE99AC5
:100C1300F90FD8E0E4C9FAE4CCFB2275F010EF2F0A
:100C2300FFEE33FEED33FDCC33CCC833C810D7070A
:100C33009BEC9AE899400AED9BFDEC9AFCE899F845
:0E0C43000FD5F0DAE4CDFBE4CCFAE4C8F922D8
:0E0C5100C3E49FFFE49EFEE49DFDE49CFC22B4
:100FD000020E8BE493A3F8E493A34003F68001F29E
:100FE00008DFF48029E493A3F85407240CC8C33322
:100FF000C4540F4420C8834004F456800146F6DFF1
:10100000E4800B010204081020408090141AE47E52
:10101000019360BCA3FF543F30E509541FFEE493E5
:10102000A360010ECF54C025E060A840B8E493A3AC
:10103000FAE493A3F8E493A3C8C582C8CAC583CAD7
:10104000F0A3C8C582C8CAC583CADFE9DEE780BE8F
:0114230000C8
:00000001FF
