:03000000020B34BC
:03002300020A8846
:10080000BB010689828A83E0225002E722BBFE02F6
:10081000E32289828A83E49322BB010CE58229F5D5
:1008200082E5833AF583E0225006E92582F8E62244
:10083000BBFE06E92582F8E222E58229F582E583FE
:100840003AF583E49322EF8DF0A4A8F0CF8CF0A4C6
:1008500028CE8DF0A42EFE22BC000BBE0029EF8D09
:10086000F084FFADF022E4CCF875F008EF2FFFEE36
:1008700033FEEC33FCEE9DEC984005FCEE9DFE0F44
:10088000D5F0E9E4CEFD22EDF8F5F0EE8420D21C9F
:10089000FEADF075F008EF2FFFED33FD40079850E7
:1008A00006D5F0F222C398FD0FD5F0EA22BB01066F
:1008B00089828A83F0225002F722BBFE01F322C50F
:1008C000F0F8A3E028F0C5F0F8E582158270021573
:1008D00083E038F022A3F8E0C5F025F0F0E58215BA
:1008E0008270021583E0C838F0E8224200970000C9
:1008F0004200950000602000990000000000000008
:1009000000000000000000000000000000000000E7
:1009100000000000000000000041007C004E000DBF
:1009200041542B43574D4F44453D330D0A00490078
:100930007D41542B5253540D0A004F008641542BD5
:100940004349504D4F44453D310D0A004D00004193
:10095000542B43495053454E440D0A004E001B4151
:10096000542B4349504D55583D300D0A0060280026
:100970005441542B43574A41503D227869616F7A64
:1009800061697A692D3463222C2271776533363997
:100990006768313437220D0A00602B002941542B3F
:1009A00043495053544152543D22544350222C2227
:1009B0003139322E3136382E32382E313534222C20
:1009C00031313131310D0A00009000B9EBF0A3EA6A
:1009D000F0A3E9F0A3E0FBA3E0FAA3E0F91208001A
:1009E0007003020A759000B9E0FBA3E0FAA3E0F9F6
:1009F0001208007003020A819000BCE0F9A3E0FA3B
:100A0000A3E0A3C9F0A3EAF0A3E9F09000B9A3E042
:100A1000FAA3E0F99000C2EBF0A3EAF0A3E9F090AA
:100A200000BFE0FBA3E0FAA3E0F9120800FF602694
:100A30009000C2E0FBA3E0FAA3E0F91208006F7097
:100A4000159000C075F0011208BF9000C3E475F066
:100A5000011208BF80C99000BFE0FBA3E0FAA3E049
:100A6000F91208007002800D9000BAE475F00112CE
:100A700008BF0209E59000B9E0FBA3E0FAA3E0F9A2
:100A8000227B007A00790022C0E0C0F0C083C082DF
:100A9000C0D075D000C000C001C002C003C004C0F7
:100AA00005C006C007309871E599B40D0A9000950D
:100AB000E4F0A304F08021900097E0FEA3E02499E5
:100AC000F58274003EF583E599F0900098E004F01B
:100AD0007006900097E004F0900095E07004A3E0A9
:100AE000640170339000BC74FFF0A3740CF0A37425
:100AF0006DF07B017A0079991209C9E94A4B6004CB
:100B0000C2A0C2A19000B9747BF0900097E4F0A35A
:100B1000F0900095F0A3F0C298D007D006D005D091
:100B200004D003D002D001D000D0D0D082D083D066
:100B3000F0D0E032787FE4F6D8FD758107020B7BB8
:100B4000020C29E493A3F8E493A34003F68001F296
:100B500008DFF48029E493A3F85407240CC8C333B6
:100B6000C4540F4420C8834004F456800146F6DF85
:100B7000E4800B01020408102040809008EBE47E22
:100B8000019360BCA3FF543F30E509541FFEE4937A
:100B9000A360010ECF54C025E060A840B8E493A341
:100BA000FAE493A3F8E493A3C8C582C8CAC583CA6C
:100BB000F0A3C8C582C8CAC583CADFE9DEE780BE24
:100BC0007B017A00790D120C907F01120CC07B0121
:100BD0007A00797D120C907F01120CC07B017A00A3
:100BE0007954120C907F06120CC07B017A00791B9D
:100BF000120C907F01120CC07B017A007986120CD6
:100C0000907F02120CC07B017A007929120C907F30
:100C100006120CC07B017A007900120C907F021240
:100C20000CC090007C7401F022120C4A120C7C1251
:100C30000BC090007CE060FAC2A07BFF7A0C796563
:100C4000120C907F01120CC080E875985075878057
:100C5000D28E53890F438920758BFA758DFAD2AFE6
:100C6000D2ACD2BC227465737431323300434F4E20
:100C70004E45435445445749464900007F38120CBD
:100C8000CE7F0C120CCE7F06120CCE7F01020CCE52
:100C9000120800FF600C120CD8740129F9E43AFA2A
:100CA00080EE22C2A58F80D2A77F027EEFDEFEDF1C
:100CB000FC22007F087E017DF3DDFEDEFCDFFA22F0
:100CC000AC07AF041CEF6005120CB280F522C2A67F
:100CD000120CA3C2A7020CA98F993099FDC29922C8
:00000001FF
