:100E58007465737431323300434F4E4E45435445E5
:070E68004457494649000010
:100800008202000082000000A0200400000000001E
:1008100000000000000000000000000000000000D8
:0B0820000000000000000000000000CD
:100DE600120E23120E6F120BDD78ACE260FBC2A06E
:100DF6007BFF7A0E7958120E837F01120EFC80E972
:03002300020A4B83
:100A4B00C0E0C0F0C083C082C0D075D000C000C071
:100A5B0001C002C003C004C005C006C00730985FC8
:100A6B00E599B40D097800E4F20804F280157802D8
:100A7B0008E22404F8E599F27803E22401F218E283
:100A8B003400F27801E26401700218E2702F78EE04
:100A9B0074FFF208740EF2087460F27BFE7A007930
:100AAB0004120992E94A4B6004C2A0C2A1782474D3
:100ABB006EF27802E4F208F27800F208F2C298D0F3
:100ACB0007D006D005D004D003D002D001D000D07F
:0A0ADB00D0D082D083D0F0D0E032FA
:100E2300759850758780D28E53890F438920758BAF
:0B0E3300FA758DFAD2AFD2ACD2BC220F
:080F14008F993099FDC299226A
:100E83001208D3FF600C120F14740129F9E43AFA23
:030E930080EE22CC
:0F0EA60041542B43495053454E443D24002400F2
:10082B0081AC008E3D41542B43574D4F44453D33D6
:10083B000D0A0089AD41542B5253540D0A008FB64B
:10084B0041542B4349504D4F44453D310D0A008DCA
:10085B003041542B43495053454E440D0A008E4BA7
:10086B0041542B4349504D55583D300D0A00A0289B
:10087B008441542B43574A41503D227869616F7A2A
:10088B0061697A692D3463222C227177653336398D
:10089B006768313437220D0A00A02B5941542B4382
:1008AB00495053544152543D22544350222C22312F
:1008BB0039322E3136382E32382E313534222C3116
:0708CB00313131310D0A004B
:100BDD007BFE7A00793D120E837F01120EFC7BFEA7
:100BED007A0079AD120E837F01120EFC7BFE7A0026
:100BFD007984120E837F06120EFC7BFE7A00794BF0
:100C0D00120E837F01120EFC7BFE7A0079B6120E56
:100C1D00837F02120EFC7BFE7A007959120E837FC0
:100C2D0006120EFC7BFE7A007930120E837F0212C3
:080C3D000EFC78AC7401F222F8
:0E0EC4007824EBF208EAF208E9F208EDF222D7
:0E0ED2007BFE7A007959120E837F0A020E967B
:0E0EE0007BFE7A00794B120E837F0A020E967B
:0A0C4500782AEBF208EAF208E9F25F
:100C4F007BFF7A0E79A608EBF208EAF208E9F2C008
:100C5F0002C001782AE2F908E2FA08E278E5C9F25F
:100C6F0008EAF208E9F2D001D002120B7178E574AC
:100C7F00FFF208740EF20874B3F2782DE2FB08E26B
:100C8F00FA08E2F9120B71782DE2FB08E2FA08E29A
:040C9F00F9020E83C5
:0F0E96001FEF600B007E027DC7DDFEDEFC80F1EA
:010EA500222A
:0D0EEE00007F087E017DF3DDFEDEFCDFFAF3
:010EFB0022D4
:0E0EFC00AC07AF041CEF6005120EEE80F5226D
:060EB500C2A58F80D2A748
:080EBB007F027EEFDEFEDFFC8A
:010EC300220C
:0A0F0A00C2A6120EB5C2A7020EBB6C
:100DC300E2FC08E2FDCFCDCFCECCCE12092B7C00C6
:090DD3007D0A12092BED2430FF0A
:0A0DDC00D2A6120EB5C2A7020EBB8C
:050E0600EAF208EBF226
:100E0B00AE07EEB40104ED148007EEB40209ED2435
:080E1B003F4480FF120F0A2280
:100E6F007F38120F0A7F0C120F0A7F06120F0A7FAC
:040E7F0001020F0A53
:080F1C00120E0BAF03020DDC05
:0A0D980078C5EBF208EAF208E9F270
:100DA200120E0BE4FD78C5E2FB08E2FA08E2F98DC7
:100DB200827583001208ECFF6006120DDC0D80E5DF
:010DC200220E
:0C0CA3007F0AEA24FFFDE434FFFC7E0021
:0D0CAF0078C8EEF208EFF208ECF208EDF262
:100CBC007F017E00E4FBEBFDD378CBE29D7480F5E5
:100CCC00F018E2648095F0400D78C8E2FC08E2FD73
:060CDC001209190B80E073
:010CE20022EF
:020E3E0078CE6C
:100E4000120E0608E2FAEAD39400400B120CA378C3
:070E5000CE120DC31A80EF62
:010E57002278
:100CE300120E0BC3EA64809480400E7F2B120DDC3E
:100CF30078D6EAF208EBF280117F2D120DDCC3E403
:100D03009BFEE49A78D6F208CEF278D5E2FAEAD3DB
:0F0D13009400400B120CA378D6120DC31A80EF78
:010D220022AE
:020D230078DA7C
:100D2500120E0608E2FAEAD39400402C7F10120C4A
:100D3500A578DAE2FC08E2FDCFCDCFCECCCE120904
:100D45002BEF540FFEC3940AEE5004243080022486
:080D550037FF120DDC1A80CEFD
:010D5D002273
:020D5E0078DF3C
:100D6000120E0608E2FAEAD39400402BEA24FFFDB3
:100D7000E434FFFC7F027E00120CAF78DFE2FC0857
:100D8000E2FDCFCDCFCECCCE12092BEF54012430D3
:070D9000FF120DDC1A80CFF9
:010D97002239
:03000000020AE50C
:0C0AE500787FE4F6D8FD758107020B2C29
:1008D300BB010689828A83E0225002E722BBFE0223
:0908E300E32289828A83E4932256
:1008EC00BB010CE58229F582E5833AF583E02250C1
:1008FC0006E92582F8E622BBFE06E92582F8E2220B
:0D090C00E58229F582E5833AF583E4932224
:10091900EF8DF0A4A8F0CF8CF0A428CE8DF0A42EF2
:02092900FE22AC
:10092B00BC000BBE0029EF8DF084FFADF022E4CCB0
:10093B00F875F008EF2FFFEE33FEEC33FCEE9DEC79
:10094B00984005FCEE9DFE0FD5F0E9E4CEFD22EDBF
:10095B00F8F5F0EE8420D21CFEADF075F008EF2F09
:10096B00FFED33FD4007985006D5F0F222C398FDFA
:05097B000FD5F0EA2297
:100B710078E2EBF208EAF208E9F278E8EBF208EA47
:100B8100F208E9F278E2E2FB0808E2F92401F2183E
:100B9100E2FA3400F21208D370EA78E4E224FFF2B8
:100BA10018E234FFF278E5E2FB0808E2F92401F2E9
:100BB10018E2FA3400F21208D3FF78E2E2FB0808E7
:100BC100E2F92401F218E2FA3400F2EF120980701E
:0C0BD100D478E8E2FB08E2FA08E2F9221E
:1009920078EBEBF208EAF208E9F208E2FB08E2FA85
:1009A20008E2F91208D37003020A3978EBE2FB0875
:1009B200E2FA08E2F91208D37003020A4408E2F9E3
:1009C20008E2FA08E208C9F208EAF208E9F278EB6A
:1009D200E2F908E2FA08E278F4C9F208EAF208E970
:1009E200F278F1E2FB08E2FA08E2F91208D3FF60BA
:1009F2002708E2FB08E2FA08E2F91208D36F70183E
:100A020078F3E22401F218E23400F278F6E22401EB
:100A1200F218E23400F280C978F1E2FB08E2FA0847
:100A2200E2F91208D37002800E78EDE22401F21886
:100A3200E23400F20209AD78EBE2FB08E2FA08E2E6
:090A4200F9227B007A0079002200
:100AF100020DE6E493A3F8E493A34003F68001F228
:100B010008DFF48029E493A3F85407240CC8C33305
:100B1100C4540F4420C8834004F456800146F6DFD4
:100B2100E4800B0102040810204080900800E47E5C
:100B3100019360BCA3FF543F30E509541FFEE493C9
:100B4100A360010ECF54C025E060A840B8E493A390
:100B5100FAE493A3F8E493A3C8C582C8CAC583CABB
:100B6100F0A3C8C582C8CAC583CADFE9DEE780BE73
:0108D2000025
:10098000BB010689828A83F0225002F722BBFE0156
:02099000F32250
:00000001FF
