:010FC500002B
:10067A008233000082310000940000000000000074
:10068A0000000000000000000000000000008114CB
:10069A00008A15000000000000000000008A1F0008
:1006AA0000000000000000000082290000812B00E9
:100E3A00120F09120F40120E55120F971209DE12E5
:0B0E4A000F9778B2E260F8C2A080F4BD
:0300230002083A96
:10083A00C0E0C0F0C083C082C0D075D000C000C084
:0D084A0001C002C003C004C005C006C00705
:100857002098030208F1E599B43014781474C5F2AE
:10086700E4F2E2FF04F274002FF87430F280797832
:1008770014E2FFB4010BB2A2E2FE04F274002E8070
:100887002A7801E2FD3395E0FCED2401FDE43CFC10
:10089700EF3395E0FED3ED9FEE6480F8EC6480982B
:1008A700400F7814E2FB04F274002BF8E599F2800C
:1008B70037EDB50733ECB5062FB2A3782FE4F2086E
:1008C700F2782FE2FE08E2FFC3940FEE6480948073
:1008D700501674002FF8E2FF1200037830E224016B
:0A08E700F218E23400F280D9C29842
:1008F100D007D006D005D004D003D002D001D0005B
:0B090100D0D0D082D083D0F0D0E03204
:100E5500759850758780D28E53890F438920758B7D
:0B0E6500FA758DFAD2AFD2ACD2BC22DD
:080003008F993099FDC299228A
:100F1D00120244FF600C120003740129F9E43AFA3D
:030F2D0080EE2231
:100E70007465737400776F6775610041542B434943
:0A0E80005053454E443D2400240069
:1006BA0081B2008E4841542B43574D4F44453D3338
:1006CA000D0A0089B341542B5253540D0A008FBCB2
:1006DA0041542B4349504D4F44453D310D0A008D3D
:1006EA003B41542B43495053454E440D0A008E5604
:1006FA0041542B4349504D55583D300D0A00A02412
:10070A008E41542B43574A41503D227072696E669E
:10071A006F2D373038222C227072696E666F36362A
:10072A0036220D0A00A02A6441542B4349505354DF
:10073A004152543D22544350222C223135302E311D
:10074A0035382E37382E313439222C313838330D9A
:02075A000A0093
:1009DE007BFE7A007948120F1D7F01120F897BFE74
:1009EE007A0079B3120F1D7F01120F897BFE7A00F8
:1009FE00798E120F1D7F06120F897BFE7A007956B3
:100A0E00120F1D7F01120F897BFE7A007964120F7F
:100A1E001D7F06120F897BFE7A0079BC120F1D7F97
:100A2E0002120F897BFE7A00793B120F1D7F021294
:100A3E000F89787274FFF208740EF2087475F2F969
:100A4E000874FFF208740EF208E9F27BFF7A0E7951
:100A5E007012033F7F02120F89D28C7F01120F8911
:100A6E007BFF7A0E79701207617F01120F8978B2BF
:040A7E007401F222EB
:0E0F5F007BFE7A007964120F1D7F0A020F30AC
:0E0F6D007BFE7A007956120F1D7F0A020F30AC
:0A0C5E007835EBF208EAF208E9F23B
:100C68007BFF7A0E797B08EBF208EAF208E9F2C01A
:100C780002C0017835E2F908E2FA08E278EFC9F231
:100C880008EAF208E9F2D001D002120B8978EF7471
:100C9800FFF208740EF2087488F27838E2FB08E272
:100CA800FA08E2F9120B897838E2FB08E2FA08E25E
:040CB800F9020F1D11
:0F0F30001FEF600B007E027DC7DDFEDEFC80F14F
:010F3F00228F
:0D0F7B00007F087E017DF3DDFEDEFCDFFA65
:010F88002246
:0E0F8900AC07AF041CEF6005120F7B80F52251
:060F5000C2A58F80D2A7AC
:080F56007F027EEFDEFEDFFCEE
:010F5E002270
:0A0FA400C2A6120F50C2A7020F569A
:100DDC00E2FC08E2FDCFCDCFCECCCE1202D07C000F
:090DEC007D0A1202D0ED2430FF53
:0A0DF500D2A6120F50C2A7020F563B
:050E1D00EAF208EBF20F
:100E2200AE07EEB40104ED148007EEB40209ED241E
:080E32003F4480FF120FA422CF
:100F09007F38120FA47F0C120FA47F06120FA47F43
:040F190001020FA41E
:080FB800120E22AF03020DF539
:0A0DB10078CBEBF208EAF208E9F251
:100DBB00120E22E4FD78CBE2FB08E2FA08E2F98D91
:100DCB008275830012025DFF6006120DF50D80E542
:010DDB0022F5
:0C0CBC007F0AEA24FFFDE434FFFC7E0008
:0D0CC80078CEEEF208EFF208ECF208EDF243
:100CD5007F017E00E4FBEBFDD378D1E29D7480F5C6
:100CE500F018E2648095F0400D78CEE2FC08E2FD54
:060CF5001202BE0B80E0BC
:010CFB0022D6
:020E8A0078D41A
:100E8C00120E1D08E2FAEAD39400400B120CBC7847
:070E9C00D4120DDC1A80EFF7
:010EA300222C
:100CFC00120E22C3EA64809480400E7F2B120DF5F5
:100D0C0078DCEAF208EBF280117F2D120DF5C3E4CA
:100D1C009BFEE49A78DCF208CEF278DBE2FAEAD3B6
:0F0D2C009400400B120CBC78DC120DDC1A80EF27
:010D3B002295
:020D3C0078E05D
:100D3E00120E1D08E2FAEAD39400402C7F10120C1A
:100D4E00BE78E0E2FC08E2FDCFCDCFCECCCE1202D3
:100D5E00D0EF540FFEC3940AEE50042430800224C8
:080D6E0037FF120DF51A80CECB
:010D7600225A
:020D770078E51D
:100D7900120E1D08E2FAEAD39400402BEA24FFFD83
:100D8900E434FFFC7F027E00120CC878E5E2FC081F
:100D9900E2FDCFCDCFCECCCE1202D0EF540124301C
:070DA900FF120DF51A80CFC7
:010DB0002220
:10090C0000064D5149736470003C0000000000006B
:10091C0000000000000000000000000000000000CB
:10092C0000000000000000000000000000000000BB
:10093C0000000000000000000000000000000000AB
:10094C00000000000000000000000000000000009B
:10095C00000000000000000000000000000000008B
:10096C00000000000000000000000000000000007B
:10097C00000000000000000000000000000000006B
:10098C00000000000000000000000000000000005B
:10099C00000000000000000000000000000000004B
:1009AC00000000000000000000000000000000003B
:1009BC00000000000000000000000000000000002B
:1009CC00000000000000000000000000000000001B
:0209DC00000019
:0A033F00786FEBF208EAF208E9F229
:10034900787AE4F2087410F208F212000EEF24121F
:10035900FFC0077872E2FB08E2FA08E2F912000E20
:10036900D0E02FFFC0077875E2FB08E2FA08E2F94E
:1003790012000ED0E02F787DF2087C017DFE7BFF14
:100389007A09790C7E007F0812021E78867403F2BE
:100399000874C2F2087C017DFE7BFF7A0979147E1C
:1003A900007F0212021E786FE2FB08E2FA08E2F906
:1003B90012000E788AEEF208EFF2087C017DFE7BCE
:1003C900FF7A0979167E007F3212021E787CE27864
:1003D9008CF2787DE2788DF2787EE2788EF2787F01
:1003E900E2788FF27880E27890F27881E27891F27F
:1003F9007882E27892F27883E27893F27884E278EC
:1004090094F27885E27895F27886E27896F27887A0
:10041900E27897F27888E27898F27889E27899F226
:10042900E408F2786FE2FB08E2FA08E2F912000E3A
:10043900789BEFF2786FE2FB08E2FA08E2F9120220
:1004490044FF6021787A08E2248CF8EFF2787BE2A5
:100459002401F218E23400F27871E22401F218E280
:100469003400F280CF787A08E2FF2401F218E234EE
:1004790000F2748C2FF8E4F27872E2FB08E2FA08D1
:10048900E2F912000E787A08E2FD2401F218E2344A
:1004990000F2748C2DF8EFF27872E2FB08E2FA08A8
:1004A900E2F9120244FF6021787A08E2248CF8EF1D
:1004B900F2787BE22401F218E23400F27874E22443
:1004C90001F218E23400F280CF787A08E2FF2401C1
:1004D900F218E23400F2748C2FF8E4F27875E2FB3A
:1004E90008E2FA08E2F912000E787A08E2FD24011E
:1004F900F218E23400F2748C2DF8EFF27875E2FB11
:1005090008E2FA08E2F9120244FF6021787A08E267
:10051900248CF8EFF2787BE22401F218E23400F23D
:100529007877E22401F218E23400F280CFE4787897
:10053900F208F2787AE2FE08E2FF7878E2FC08E253
:10054900FDC39FEE6480F8EC6480985016748C2D7E
:10055900F8E2FF1200037879E22401F218E234008C
:03056900F280D04D
:01056C00226C
:0A0FAE007FC0120003E4FF020003FD
:0A076100786FEBF208EAF208E9F203
:10076B00E408F208F208F2087406F2087C017DFE38
:10077B007BFF7A0979487E007F3212021E78A874BB
:10078B0082F2786FE2FB08E2FA08E2F912000EEF50
:10079B002405FF78A8E27876F208EFF2E408F20875
:1007AB0004F2E408F2786FE2FB08E2FA08E2F912CD
:1007BB00000E787BEFF2786FE2FB08E2FA08E2F9C1
:1007CB00120244FF6020787408E2FD2401F218E263
:1007DB003400F274762DF8EFF27871E22401F218FE
:1007EB00E23400F280D0787408E2FF2401F218E2C0
:1007FB003400F274762FF8E4F27872F208F278741F
:10080B00E2FE08E2FF7872E2FC08E2FDC39FEE64B1
:10081B0080F8EC648098501674762DF8E2FF120085
:0E082B00037873E22401F218E23400F280D068
:01083900229C
:0A056D007800EBF208EAF208E9F268
:10057700E47806F208F208F2087404F2087C017DB8
:10058700FE7BFF7A09797A7E007F6412021E786EFD
:100597007430F27800E2FB08E2FA08E2F912000E82
:1005A700EF2402FFC0077803E2FB08E2FA08E2F94A
:1005B70012000ED0E02FFF786EE2780AF208EFF211
:1005C700E408F27800E2FB08E2FA08E2F912000E0A
:1005D700780DEFF27800E2FB08E2FA08E2F912027E
:1005E70044FF6020780808E2FD2401F218E2340095
:1005F700F2740A2DF8EFF27802E22401F218E234DD
:1006070000F280D07803E2FB08E2FA08E2F912026E
:1006170044FF6020780808E2FD2401F218E2340064
:10062700F2740A2DF8EFF27805E22401F218E234A9
:1006370000F280D0780808E2240AF8E4F27806F29B
:1006470008F27808E2FE08E2FF7806E2FC08E2FD1D
:10065700C39FEE6480F8EC6480985016740A2DF8F6
:10066700E2FF1200037807E22401F218E23400F2F5
:0206770080D031
:01067900225E
:050FC00074656D700076
:04075C0082E800002F
:100F4000438901758CFC758A66D2AFD2A9C28C2206
:03000B00020B0ED7
:100B0E00C0E0C0F0C083C082C0D075D000C000C0AD
:0D0B1E0001C002C003C004C005C006C0072E
:100B2B00758CFC758A6678E9E22401F218E23400D0
:100B3B00F208E2B4302D18E2B47528E4F208F2B2F0
:100B4B00A1120FAE7BFE7A0079EA120BF5780374D3
:100B5B00FEF2087400F20874EAF27BFF7A0F79C098
:030B6B0012056D03
:100B6E00D007D006D005D004D003D002D001D000DB
:0B0B7E00D0D0D082D083D0F0D0E03285
:0D0F9700120EA47FCC120EBE7F44020EBECF
:0A0BF5007800EBF208EAF208E9F2DA
:100BFF00120EA47FCC120EBE7FBE120EBE120DFFC0
:100C0F007803EFF2120DFF7804EFF2E2FE18E2FD27
:100C1F00EDFFAC06EC1200CBE4FBFA7980784112C1
:100C2F00002978051203337803E2FF7800E2FB080E
:100C3F00E2FA08E2F9900001EF12029C7804E21246
:0E0C4F00028A08E2FC08E2FD08E2FE08E2FF6D
:010C5D002274
:100EA400D2B7C2B77FF7DFFED2B77F20DFFEA2B78B
:090EB400E433FE7F55DFFEAF06BA
:010EBD002212
:100ED800EF7009C2B77E3CDEFED2B722C2B77E04ED
:080EE800DEFED2B77E18DEFE2B
:010EF00022DF
:100EF100C2B77F02DFFED2B77F02DFFEA2B7E433C3
:070F0100FE7F18DFFEAF06C2
:010F080022C6
:020EBE00AD077E
:100EC000E4FC7401A804088002C333D8FC5DFF125F
:070ED0000ED80CECB408EB96
:010ED70022F8
:100DFF00E4FDFC120EF1EF600D7401A804088002EF
:0D0E0F00C333D8FC4DFD0CECB408E8AF0572
:010E1C0022B3
:10002600020143EC5D046005E859047003020139DE
:10003600120104580460F6EC4860F2EC7004FDFE10
:10004600FF22C860DB2481C85009C39860025006AD
:100056000201409850CAF582E9294B4A7005AB82E5
:1000660002012F75F0007C1A7880C3EF9BEE9AEDA3
:1000760099400DC3EF9BFFEE9AFEED99FDE842F025
:10008600DC23ACF0D0E0FFD0E0FED0E0FDAB822078
:10009600E7101BEB60BAEC2CFCEF33FFEE33FEED02
:1000A60033FD02011BE803F830E705C0F075F000E8
:1000B600EF2FFFEE33FEED33FD40B830E7C280AAE6
:1000C60075F020800E75F010800575F0087D007EB5
:1000D600007F003392D530D503120325EC33401050
:1000E600EF33FFEE33FEED33FDEC33FCD5F0ED22BE
:0E00F600E5F0247EA2D513CC92E7CDCEFF22FA
:10010400E9D2E7C933E833F892D5EDD2E7CD33EC41
:0701140033FC5002B2D522BA
:10011B00EC30E7100FBF000C0EBE00080DBD000445
:10012B000BEB6014A2D5EB13FCED92E7FD2274FFF1
:10013B00FCFDFEFF22E480F8A2D574FF13FC7D804A
:03014B00E480EF5E
:03000000020A826F
:0C0A8200787FE4F6D8FD758107020AC9F0
:10014E00E709F608DFFA8046E709F208DFFA803E93
:10015E0088828C83E709F0A3DFFA8032E309F60880
:10016E00DFFA8078E309F208DFFA807088828C83E8
:10017E00E309F0A3DFFA806489828A83E0A3F6089C
:10018E00DFFA805889828A83E0A3F208DFFA804C76
:10019E0080D280FA80C680D4806980F2803380104D
:1001AE0080A680EA809A80A880DA80E280CA8033B6
:1001BE0089828A83ECFAE493A3C8C582C8CCC5832E
:1001CE00CCF0A3C8C582C8CCC583CCDFE9DEE780FE
:1001DE000D89828A83E493A3F608DFF9ECFAA9F07D
:1001EE00EDFB2289828A83ECFAE0A3C8C582C8CCD3
:1001FE00C583CCF0A3C8C582C8CCC583CCDFEADEEC
:10020E00E880DB89828A83E493A3F208DFF980CC4D
:10021E0088F0EF60010E4E60C388F0ED2402B40446
:10022E000050B9F582EB2402B4040050AF232345ED
:06023E00822390019E7373
:10024400BB010689828A83E0225002E722BBFE02B8
:09025400E32289828A83E49322EB
:10025D00BB010CE58229F582E5833AF583E0225056
:10026D0006E92582F8E622BBFE06E92582F8E222A0
:0D027D00E58229F582E5833AF583E49322BA
:10028A00BB010689828A83F0225002F722BBFE0153
:02029A00F3224D
:10029C00F8BB010DE58229F582E5833AF583E8F098
:1002AC00225006E92582C8F622BBFE05E92582C844
:0202BC00F2222C
:1002BE00EF8DF0A4A8F0CF8CF0A428CE8DF0A42E54
:0202CE00FE220E
:1002D000BC000BBE0029EF8DF084FFADF022E4CC12
:1002E000F875F008EF2FFFEE33FEEC33FCEE9DECDB
:1002F000984005FCEE9DFE0FD5F0E9E4CEFD22ED21
:10030000F8F5F0EE8420D21CFEADF075F008EF2F6A
:10031000FFED33FD4007985006D5F0F222C398FD5B
:050320000FD5F0EA22F8
:0E032500C3E49FFFE49EFEE49DFDE49CFC22E9
:0C033300ECF208EDF208EEF208EFF22206
:100B890078ECEBF208EAF208E9F278F2EBF208EA1B
:100B9900F208E9F278ECE2FB0808E2F92401F2181C
:100BA900E2FA3400F212024470EA78EEE224FFF22B
:100BB90018E234FFF278EFE2FB0808E2F92401F2C7
:100BC90018E2FA3400F2120244FF78ECE2FB08085A
:100BD900E2F92401F218E2FA3400F2EF12028A7003
:0C0BE900D478F2E2FB08E2FA08E2F922FC
:10000E00E4FFFE120244600C0FEF70010E09E9705E
:05001E00F20A80EF2250
:100A8E00020E3AE493A3F8E493A34003F68001F236
:100A9E0008DFF48029E493A3F85407240CC8C33369
:100AAE00C4540F4420C8834004F456800146F6DF38
:100ABE00E4800B010204081020408090067AE47E48
:100ACE00019360BCA3FF543F30E509541FFEE4932D
:100ADE00A360010ECF54C025E060A840B8E493A3F4
:100AEE00FAE493A3F8E493A3C8C582C8CAC583CA1F
:100AFE00F0A3C8C582C8CAC583CADFE9DEE780BED7
:010760000098
:00000001FF
