:0809880012091B12094F80FE49
:030023000208F8D8
:1008F800C0E0C0D0309817E599B46F02C2A0E5995E
:10090800B46B02C2A1E599B46502C2A3C298D0D063
:03091800D0E032FA
:10091B00759850758780D28E53890F438920758BBC
:0B092B00FA758DFAD2AFD2ACD2BC221C
:080990008F993099FDC29922F4
:10096600120936FF600C120990740129F9E43AFA6B
:0309760080EE22EE
:10088C000E0841542B4349504D55583D310D0A002B
:10089C0020284341542B43574A41503D22786961EB
:1008AC006F7A61697A692D3463222C2271776533F2
:1008BC0036396768313437220D0A00202D16415421
:1008CC002B43495053544152543D322C22544350E3
:1008DC00222C223139322E3136382E32382E313507
:0B08EC0034222C31313131310D0A0073
:10094F007B007A0079081209667FD01209797B0043
:07095F007A00791602096617
:0E0979001FEF600A7E027DEFDDFEDEFC80F2E5
:01098700224D
:03000000020800F3
:0C080000787FE4F6D8FD75816A02084795
:10093600BB010689828A83E0225002E722BBFE02BF
:09094600E32289828A83E49322F2
:10080C00020988E493A3F8E493A34003F68001F271
:10081C0008DFF48029E493A3F85407240CC8C333ED
:10082C00C4540F4420C8834004F456800146F6DFBC
:10083C00E4800B010204081020408090088CE47EB8
:10084C00019360BCA3FF543F30E509541FFEE493B1
:10085C00A360010ECF54C025E060A840B8E493A378
:10086C00FAE493A3F8E493A3C8C582C8CAC583CAA3
:10087C00F0A3C8C582C8CAC583CADFE9DEE780BE5B
:0108F7000000
:00000001FF
