:070BED00D2AFD2A8C288229A
:03000300020A02EC
:100A0200C0E0C0F0C083C082C0D075D000C000C0BA
:100A120001C002C003C004C005C006C007B2A07F67
:100A22000A120BBE30B2FD7F0A120BBED007D006EF
:100A3200D005D004D003D002D001D000D0D0D082D3
:070A4200D083D0F0D0E032B8
:050BF400120BED80FE74
:060BAF00C2A58F80D2A751
:080BB5007F027EEFDEFEDFFC93
:010BBD002215
:0A0BD900C2A6120BAFC2A7020BB5B3
:100B4A00CFCDCFCECCCE1209AD7C007D0A1209AD35
:040B5A00ED2430FF57
:0A0B5E00D2A6120BAFC2A7020BB51E
:100B8500AE07BE0104ED148006BE0209ED243F4404
:060B950080FF120BD922C3
:100B9B007F38120BD97F0C120BD97F06120BD97F22
:040BAB0001020BD95F
:0A0BE300AC03120B85AF04020B5E99
:060B27008B228A238924C1
:100B2D00120B85E4FDAB22AA23A9248D82758300C7
:0C0B3D0012096EFF6006120B5E0D80E9CD
:010B49002289
:0C0AF4007F0AEA24FFFDE434FFFC7E00D2
:080B00008E1E8F1F8C208D2139
:100B08007F017E00E4FBEBC39521E5206480F87447
:0E0B18008098500AAC1EAD1F12099B0B80E89E
:010B260022AC
:040B68008A118B1251
:100B6C00120B85AA13EAD39400400D120AF4AC11AF
:080B7C00AD12120B4A1A80EDC4
:010B8400224E
:100A4900120B85C3EA64809480400B7F2B120B5EE6
:100A59008A0D8B0E800E7F2D120B5EC3E49BF50E63
:100A6900E49AF50DAA0CEAD39400400D120AF4ACED
:090A79000DAD0E120B4A1A80EDBE
:010A82002251
:040A83008A168B172D
:100A8700120B85AA18EAD3940040297F10120AF6A0
:100A9700AC16AD17CFCDCFCECCCE1209ADEF540FDC
:100AA700FEC3940AEE5004243080022437FF120B51
:040AB7005E1A80D172
:010ABB002218
:040ABC008A1B8B1CEA
:100AC000120B85AA1DEAD394004028EA24FFFDE416
:100AD00034FFFC7F027E00120B00AC1BAD1CCFCD9F
:100AE000CFCECCCE1209ADEF54012430FF120B5EF5
:030AF0001A80D297
:010AF30022E0
:100800007590FFC2932097137F14120BBE3097FD93
:100810007F14120BBE7525007526012096137F14D8
:10082000120BBE3096FD7F14120BBE752500752687
:10083000052095137F14120BBE3095FD7F14120B0B
:10084000BE7525007526092094137F14120BBE3047
:1008500094FD7F14120BBE75250075260DC29220E3
:1008600097137F14120BBE3097FD7F14120BBE75C9
:1008700025007526022096137F14120BBE3096FDBC
:100880007F14120BBE7525007526062095137F1464
:10089000120BBE3095FD7F14120BBE752500752618
:1008A0000A2094137F14120BBE3094FD7F14120B98
:1008B000BE75250075260EC2912097137F14120B6A
:1008C000BE3097FD7F14120BBE75250075260320E0
:1008D00096137F14120BBE3096FD7F14120BBE755B
:1008E00025007526072095137F14120BBE3095FD49
:1008F0007F14120BBE75250075260B2094137F14F0
:10090000120BBE3094FD7F14120BBE7525007526A8
:100910000FC2902097137F14120BBE3097FD7F14E7
:10092000120BBE7525007526042096137F14120B3A
:10093000BE3096FD7F14120BBE752500752608206B
:1009400095137F14120BBE3095FD7F14120BBE75EC
:10095000250075260C2094137F14120BBE3094FDD5
:0D0960007F14120BBE752500752610AF2602
:01096D002267
:0E0BBE001FEF600A7E027DEFDDFEDEFC80F29E
:010BCC002206
:03000000020BCD23
:0C0BCD00787FE4F6D8FD758126020BF459
:10096E00BB010CE58229F582E5833AF583E022503E
:10097E0006E92582F8E622BBFE06E92582F8E22288
:0D098E00E58229F582E5833AF583E49322A2
:10099B00EF8DF0A4A8F0CF8CF0A428CE8DF0A42E70
:0209AB00FE222A
:1009AD00BC000BBE0029EF8DF084FFADF022E4CC2E
:1009BD00F875F008EF2FFFEE33FEEC33FCEE9DECF7
:1009CD00984005FCEE9DFE0FD5F0E9E4CEFD22ED3D
:1009DD00F8F5F0EE8420D21CFEADF075F008EF2F87
:1009ED00FFED33FD4007985006D5F0F222C398FD78
:0509FD000FD5F0EA2215
:00000001FF
